{
  "contractName": "SimpleStorage",
  "abi": [
    {
      "constant": true,
      "inputs": [],
      "name": "storedData",
      "outputs": [
        {
          "name": "",
          "type": "uint256"
        }
      ],
      "payable": false,
      "stateMutability": "view",
      "type": "function"
    },
    {
      "constant": false,
      "inputs": [
        {
          "name": "x",
          "type": "uint256"
        }
      ],
      "name": "set",
      "outputs": [],
      "payable": false,
      "stateMutability": "nonpayable",
      "type": "function"
    },
    {
      "constant": true,
      "inputs": [],
      "name": "get",
      "outputs": [
        {
          "name": "retVal",
          "type": "uint256"
        }
      ],
      "payable": false,
      "stateMutability": "view",
      "type": "function"
    },
    {
      "inputs": [
        {
          "name": "initVal",
          "type": "uint256"
        }
      ],
      "payable": false,
      "stateMutability": "nonpayable",
      "type": "constructor"
    }
  ],
  "bytecode": "0x6060604052341561000f57600080fd5b60405160208061014b833981016040528080519060200190919050508060008190555050610109806100426000396000f3006060604052600436106053576000357c0100000000000000000000000000000000000000000000000000000000900463ffffffff1680632a1afcd914605857806360fe47b114607e5780636d4ce63c14609e575b600080fd5b3415606257600080fd5b606860c4565b6040518082815260200191505060405180910390f35b3415608857600080fd5b609c600480803590602001909190505060ca565b005b341560a857600080fd5b60ae60d4565b6040518082815260200191505060405180910390f35b60005481565b8060008190555050565b600080549050905600a165627a7a72305820d1fae29ff1f9fd6469ac20dd2fef4d1e31019ea3e276aeca1b85b2e64183622a0029",
  "source": "pragma solidity ^0.4.8;\n\ncontract SimpleStorage {\n\tuint public storedData;\n\n\tfunction SimpleStorage(uint initVal) {\n\t\tstoredData = initVal;\n\t}\n\n\tfunction set(uint x) {\n\t\tstoredData = x;\n\t}\n\n\tfunction get() constant returns (uint retVal) {\n\t\treturn storedData;\n\t}\n}",
  "sourcePath": "/home/tomisin/Documents/projects/Blockchain/Ethereum/TopCoder/DiveDeeper/Quorum-Enterprise-Blockchain/project/contracts/SimpleStorage.sol",
  "compiler": {
    "name": "solc",
    "version": "0.4.18+commit.9cf6e910.Emscripten.clang"
  },
  "schemaVersion": "1.0.1",
  "updatedAt": "2017-11-17T03:28:54.917Z"
}